:020000040800F2
:10000000982400209D010008393B0008A133000816
:10001000B5390008A9020008A54500080000000045
:10002000000000000000000000000000A13D0008EA
:10003000C905000800000000793D00087D3E000869
:10004000B7010008B7010008B7010008B7010008B0
:10005000B7010008B7010008CD050008B701000886
:10006000B7010008B7010008B7010008B701000890
:10007000B7010008B7010008B7010008B701000880
:10008000B7010008B7010008B7010008B701000870
:1000900075030008B7010008B7010008B7010008A0
:1000A000B7010008B7010008B7010008B701000850
:1000B000B7010008B7010008B7010008B701000840
:1000C000B7010008B7010008B7010008B701000830
:1000D000B7010008B7010008B7010008B701000820
:1000E000B7010008B7010008B7010008B701000810
:1000F000B7010008B7010008B7010008B701000800
:10010000B7010008B7010008B7010008B7010008EF
:10011000B7010008B7010008B7010008B7010008DF
:1001200061040008B7010008B70100087104000865
:10013000B7010008B7010008B7010008B7010008BF
:10014000B7010008B7010008B7010008B7010008AF
:10015000B7010008B7010008B7010008B70100089F
:10016000B7010008B7010008B7010008B70100088F
:10017000B7010008B7010008B7010008000000003F
:10018000B7010008B7010008DFF80CD000F07AF8DA
:10019000004800470148000898240020064880478E
:1001A00006480047FEE7FEE7FEE7FEE7FEE7FEE75C
:1001B000FEE7FEE7FEE7FEE7413F00088901000891
:1001C0002DE9F05F0546002092469B46884606468C
:1001D000814640241BE0284641464746224600F01F
:1001E00041F853465A46C01A914110D31146184659
:1001F000224600F028F82D1A67EB01084F462246E8
:100200000120002100F01FF817EB00094E41201ECD
:10021000A4F10104DFDC484631462A464346BDE8E6
:10022000F09FD2B201E000F8012B491EFBD27047CB
:100230000022F6E710B513460A4604461946FFF7B2
:10024000F0FF204610BD202A04DB203A00FA02F11C
:10025000002070479140C2F1200320FA03F31943B4
:1002600090407047202A04DB203A21FA02F0002156
:10027000704721FA02F3D040C2F1200291400843B6
:1002800019467047064C074D06E0E06840F0010350
:1002900094E8070098471034AC42F6D3FFF778FF94
:1002A0006C4800088C480008FFE7FEE780B584B082
:1002B00003900291019200930399002081F8340089
:1002C00003980299019A009B03F0B4FC03989FEDF8
:1002D000070A03F0CBFC03984FF4FA6103F0F8FC33
:1002E000039803F023FD04B080BD00BF00000000B0
:1002F00080B582B00190019890F8340030B9FFE7E2
:1003000001989FED1A0A03F0B1FCFFE7019890F8FD
:100310003400012828D1FFE748F28040C0F21E00D7
:10032000009001989FED120A03F0A0FCFFE70098EF
:10033000411E009108B1FFE7F9E748F28040C0F2A2
:100340001E00009001989FED090A03F08FFCFFE763
:100350000098411E009108B1FFE7F9E748F280409C
:10036000C0F21E000090FFE702B080BD0000000058
:100370000AD7233C80B540F2BC20C2F2000000F056
:1003800081FB80BD81B00090FFE7FEE780B58CB0B7
:100390000B90012109910020079008910190029093
:1003A000039004900B9840F2BC21C2F200018842F5
:1003B00003D1FFE70020069002E00E200690FFE741
:1003C0000B9840F2BC21C2F20001884203D1FFE742
:1003D0000020059002E001200590FFE70B9801A99D
:1003E00000F082F920B1FFE70098FFF7CBFFFFE7AD
:1003F0000B9800F0BFFE20B1FFE70098FFF7C2FFA7
:10040000FFE70B9840F2BC21C2F20001884206D1FE
:10041000FFE70B98022100F03DF9009005E00B98F2
:10042000102100F037F90090FFE7009820B1FFE7B6
:100430000098FFF7A7FFFFE70CB080BD82B00190E6
:10044000009100980199086001990020C860019905
:100450008860019A082111610199087502B07047FE
:1004600080B540F2E420C2F2000000F0E5FE80BD5D
:1004700080B540F24430C2F2000000F0DDFE80BDE5
:1004800082B001900198007810384AF6AB21CAF684
:10049000AA21A0FB011000090090009944F6620017
:1004A000C0F60000405C0199C8650098042807D395
:1004B000FFE701990868042262F30900886506E0F5
:1004C0000199086840F2FF3290438865FFE7019880
:1004D000806D02B07047000086B0059000208DF856
:1004E00013000598806A03900598806910BBFFE7A8
:1004F0000398029003281BD80299DFE801F0020D4F
:100500000218059890F82F00C00720B1FFE70120DE
:100510008DF81300FFE70CE00598C06AB0F1C07FCA
:1005200004D1FFE701208DF81300FFE701E000E0B0
:10053000FFE745E005988069B0F5005F25D1FFE74A
:100540000398019003281ED80199DFE801F0020604
:10055000021101208DF8130016E0059890F82F0085
:10056000C00720B1FFE701208DF81300FFE70BE083
:100570000598C06AB0F1C07F04D1FFE701208DF873
:100580001300FFE700E0FFE719E00398009003285D
:1005900004D3FFE70098032804D00EE001208DF873
:1005A00013000BE0059890F82F00C00720B1FFE77B
:1005B00001208DF81300FFE700E0FFE7FFE7FFE70A
:1005C0009DF8130006B070477047000080B582B0F8
:1005D0000120019000F01AF8019801F09DF802B096
:1005E00080BD000081B0EFF3108072B60090FFE78D
:1005F000FEE7000082B08DED010A0090019800999D
:10060000486000990020886002B0704780B582B0D1
:10061000ADF80600BDF80600012807D1FFE740F25B
:100620000000C2F2000002F0F9FEFFE702B080BD58
:1006300080B582B0019001F0ABFA0199C8600199D0
:100640004868098901F060FA0199087001980078FA
:1006500002B080BD80B582B00190019948680989D7
:10066000002201F07DFA0198FFF7E2FF019908707E
:1006700002B080BD80B582B00190019948680989B7
:10068000012201F06DFA0198FFF7D2FF019908707D
:1006900002B080BD84B002900191029890F82000D1
:1006A0008DF803009DF80300012805D0FFE79DF8B1
:1006B000030002280AD1FFE7019A029801684869FD
:1006C0001043486100208DF80F0008E00299486A45
:1006D00040F48020486201208DF80F00FFE79DF86C
:1006E0000F0004B07047000086B004900391049896
:1006F00000680190049890F820008DF803009DF8A0
:100700000300012806D0FFE79DF80300022840F00F
:10071000B080FFE746F20040C4F20000019001996A
:10072000D1F8000240F00100C1F800020199D1F8AF
:10073000000220F47C50C1F800020398426A01993B
:10074000D1F8000240EA0220C1F800020398406993
:1007500000F01F01012088400290029A0199D1F80F
:100760001C029043C1F81C020398C069F0B9FFE76E
:10077000029A0199D1F80C029043C1F80C02039A35
:100780009088D168526940EA0140019901EBC201A9
:10079000C1F84002039A10889168526940EA01400A
:1007A000019901EBC201C1F84402FFE70398C06957
:1007B00001281ED1FFE7029A0199D1F80C021043DB
:1007C000C1F80C02039A90881168526940EA01400E
:1007D000019901EBC201C1F84002039A9089916826
:1007E000526940EA0140019901EBC201C1F844029B
:1007F000FFE70398806940B9FFE7029A0199D1F8B1
:1008000004029043C1F8040207E0029A0199D1F86A
:1008100004021043C1F80402FFE70398006940B9DD
:10082000FFE7029A0199D1F814029043C1F814022B
:1008300007E0029A0199D1F814021043C1F814029A
:10084000FFE70398006A012808D1FFE7029A01999F
:10085000D1F81C021043C1F81C02FFE70199D1F83E
:10086000000220F00100C1F8000200208DF81700FE
:1008700008E00499486A40F48020486201208DF81D
:100880001700FFE79DF8170006B0704781B0009091
:1008900001B0704786B004900391029201930498CE
:1008A00090F820008DF803009DF80300012806D081
:1008B000FFE79DF80300022840F0D780FFE7039888
:1008C00080B9FFE704980068C068800748B9FFE76F
:1008D0000499486A40F40010486201208DF817001E
:1008E000CCE00FE0049800680069800748B9FFE792
:1008F0000499486A40F40010486201208DF81700FE
:10090000BCE0FFE704980068039900EB0110D0F801
:10091000B00100F00400029988600298806858B91C
:10092000FFE704980068039900EB0110D0F8B001CC
:10093000400D029908600AE004980068039900EBF2
:100940000110D0F8B001C00802994860FFE7049890
:100950000068039900EB0110D0F8B00100F002002C
:100960000299C86004980068039900EB0110D0F860
:10097000B40100F00F00029908610498006803991F
:1009800000EB0110D0F8B40180B2000A029988612E
:1009900004980068039900EB0110D0F8B401000C32
:1009A0000299486104980068039900EB0110D0F89F
:1009B000B8010199087004980068039900EB0110D0
:1009C000D0F8B801000A01994870049800680399AA
:1009D00000EB0110D0F8B801000C01998870049860
:1009E0000068039900EB0110D0F8B801000E0199DE
:1009F000C87004980068039900EB0110D0F8BC019E
:100A00000199087104980068039900EB0110D0F86F
:100A1000BC01000A0199487104980068039900EB31
:100A20000110D0F8BC01000C01998871049800688D
:100A3000039900EB0110D0F8BC01000E0199C871B8
:100A4000039838B9FFE704980168C86840F02000AF
:100A5000C86006E004980168086940F02000086159
:100A6000FFE700208DF8170008E00499486A40F479
:100A70008020486201208DF81700FFE79DF81700DD
:100A800006B0704780B58AB0099000200890099898
:100A900000684069079009980068406806900998C6
:100AA00000688068059009980068C06804900998FB
:100AB00000680069039009980068806902909DF8B9
:100AC0001C00C007002800F09480FFE79DF8140088
:100AD000C00758B3FFE709980168012088609DF8B6
:100AE00014008007002804D5FFE7099800F08CFB6C
:100AF0001BE09DF814004007002805D5FFE7089883
:100B000040F4006008900FE09DF8140000070028F2
:100B100005D5FFE7089840F48050089003E0099855
:100B200000F06EFBFFE7FFE7FFE7FFE79DF815002A
:100B3000C00760B3FFE7099801684FF480708860D0
:100B40009DF815008007002804D5FFE7099800F0FC
:100B500063FB1BE09DF815004007002805D5FFE763
:100B6000089840F4005008900FE09DF81500000729
:100B7000002805D5FFE7089840F48040089003E07E
:100B8000099800F045FBFFE7FFE7FFE7FFE79DF867
:100B90001600C00760B3FFE7099801684FF4803082
:100BA00088609DF816008007002804D5FFE70998A3
:100BB00000F03AFB1BE09DF816004007002805D521
:100BC000FFE7089840F4004008900FE09DF81600F9
:100BD0000007002805D5FFE7089840F4803008900A
:100BE00003E0099800F01CFBFFE7FFE7FFE7FFE7E2
:100BF000FFE79DF81C000007002810D5FFE79DF8CF
:100C00001000C006002809D5FFE7089840F40070DE
:100C10000890099801681020C860FFE7FFE79DF879
:100C20001C00400700280FD5FFE79DF810000007C3
:100C3000002808D5FFE7099801680820C8600998CE
:100C400000F05CFAFFE7FFE79DF81C008007002832
:100C50000BD5FFE709980068C068800720B1FFE75F
:100C6000099800F04FFAFFE7FFE79DF81C004006E7
:100C7000002810D5FFE79DF80C00C006002809D514
:100C8000FFE7089840F480600890099801681020F8
:100C90000861FFE7FFE79DF81C00800600280FD5DC
:100CA000FFE79DF80C000007002808D5FFE709982A
:100CB000016808200861099800F03CFAFFE7FFE7A7
:100CC0009DF81C00C00600280BD5FFE709980068B6
:100CD0000069800720B1FFE7099800F02FFAFFE7CD
:100CE000FFE79DF81E00800700280FD5FFE79DF85D
:100CF0001800C006002808D5FFE7099801681020F1
:100D00004860099800F032FAFFE7FFE79DF81E00FF
:100D1000C00778B1FFE79DF818000007002808D544
:100D2000FFE70998016808204860099800F080FAF8
:100D3000FFE7FFE79DF81D000006002840F18D80C9
:100D4000FFE79DF818004007002840F18180FFE789
:100D50009DF81D00C00750B1FFE79DF80800C007CF
:100D600028B1FFE7089840F001000890FFE79DF8E0
:100D70001D00800700280BD5FFE79DF808008007BD
:100D8000002805D5FFE7089840F002000890FFE72B
:100D90009DF81D00400700280BD5FFE79DF80800CF
:100DA0004007002805D5FFE7089840F004000890A8
:100DB000FFE79DF81D000007002848D5FFE79DF8D4
:100DC000080010F0700F42D0FFE7029800F07000AA
:100DD00001460191102814D0FFE70198202815D072
:100DE000FFE70198302816D0FFE70198402817D078
:100DF000FFE70198502818D0FFE70198602819D024
:100E00001DE0089840F00800089019E0089840F0AC
:100E10001000089014E0089840F0200008900FE0BF
:100E2000089840F0400008900AE0089840F08000E0
:100E3000089005E0089840F48070089000E0FFE713
:100E400009980168886920F070008861FFE7FFE772
:100E50000998016804204860FFE7089848B1FFE757
:100E6000089A0999486A104348620998FFF70EFDED
:100E7000FFE70AB080BD000080B584B00290029800
:100E800020B9FFE701208DF80F00E0E0029890F80C
:100E9000200020B9FFE7029800F0DEF8FFE7029893
:100EA0000168086840F00100086000F071FE0190E0
:100EB000FFE7029800684068C007A8B9FFE700F0A4
:100EC00067FE0199401A0B280DD3FFE70299486A83
:100ED00040F4003048620299052081F8200001208A
:100EE0008DF80F00B3E0E4E702980168086820F08D
:100EF0000200086000F04CFE0190FFE702980068D5
:100F000040688007002815D5FFE700F041FE0199F1
:100F1000401A0B280DD3FFE70299486A40F40030CD
:100F200048620299052081F8200001208DF80F0009
:100F30008DE0E3E70298007E012807D1FFE70298E1
:100F40000168086840F08000086006E002980168C7
:100F5000086820F080000860FFE70298407E0128C2
:100F600007D1FFE702980168086840F04000086078
:100F700006E002980168086820F040000860FFE77A
:100F80000298807E012807D1FFE70298016808686F
:100F900040F02000086006E002980168086820F030
:100FA00020000860FFE70298C07E012807D1FFE714
:100FB00002980168086820F01000086006E00298B6
:100FC0000168086840F010000860FFE70298007FA1
:100FD000012807D1FFE702980168086840F008007F
:100FE000086006E002980168086820F008000860C0
:100FF000FFE70298407F012807D1FFE702980168C8
:10100000086840F00400086006E00298016808687B
:1010100020F004000860FFE7029B19685A6898688E
:10102000D3F80CC040EA0C00D3F810C040EA0C0022
:101030005B691843013A1043C86102990020486275
:10104000029A012182F820108DF80F00FFE79DF829
:101050000F0004B080BD000080B58AB00990002068
:10106000089007900690059004900998006846F251
:101070000041C4F2000188423DD1FFE7FFE70020B4
:10108000039043F64000C4F20200016841F0007191
:101090000160006800F0007003900398FFE7FFE72D
:1010A0000020029043F63000C4F20200016841F0D3
:1010B00008010160006800F0080002900298FFE754
:1010C00003200490022105910021009106910790D0
:1010D0000920089040F60040C4F2020004A900F084
:1010E00037FB009A14200190114600F0E9FD0198A9
:1010F00000F0DCFDFFE70AB080BD000081B0009089
:1011000001B0704780B58CB00B900B98002104AAF9
:1011100002ABFFF7BFFB20B1FFE70198FFF732F901
:10112000FFE70B980499089B02AA02F09BFC0CB005
:1011300080BD000081B0009001B0704780B58CB0D8
:101140000B900B98012104AA02ABFFF7A3FB20B17F
:10115000FFE70198FFF716F9FFE70B980499089B42
:1011600002AA02F07FFC0CB080BD000081B00090AC
:1011700001B0704780B584B00290029890F82000CA
:1011800001282FD1FFE70299022081F82000029860
:101190000168086820F00100086000F0F9FC019087
:1011A000FFE7029800684068C007A8B1FFE700F0B9
:1011B000EFFC0199401A0B280DD3FFE70299486A0A
:1011C00040F4003048620299052081F82000012097
:1011D0008DF80F000FE0E4E70299002048628DF8D7
:1011E0000F0008E00299486A40F40020486201209C
:1011F0008DF80F00FFE79DF80F0004B080BD0000E0
:1012000081B0009001B0704781B0009001B070478C
:1012100081B0009001B0704781B0009001B070477C
:1012200081B0009001B0704781B0009001B070476C
:1012300081B0009001B0704780B586B00590002065
:10124000039040F25000C2F20000006848F2B5116D
:10125000C1F64E31A0FB0110800A02900598806D06
:10126000019001980068049004980599C96DC840E0
:10127000000700281AD5FFE70598006800684007B6
:10128000002812D5FFE705980168086820F00400DF
:1012900008600598C16D082088400199886005990B
:1012A000486D40F001004865FFE7FFE704980599A5
:1012B000C96DC840C007A0B1FFE705980068406944
:1012C000000600280CD5FFE70598C16D0120884075
:1012D000019988600599486D40F002004865FFE774
:1012E000FFE704980599C96DC8404007002814D548
:1012F000FFE7059800680068800700280CD5FFE725
:101300000598C16D04208840019988600599486D51
:1013100040F004004865FFE7FFE704980599C96DB0
:10132000C840C006002847D5FFE705980068006858
:10133000000700283FD5FFE70598C16D10208840C1
:1013400001998860059800680068400300281AD554
:10135000FFE70598006800680003002809D4FFE74C
:101360000598006C20B1FFE70598016C8847FFE7FE
:1013700008E00598806C20B1FFE70598816C8847EC
:10138000FFE7FFE716E0059800680068C005002841
:1013900007D4FFE705980168086820F00800086096
:1013A000FFE70598006C20B1FFE70598016C8847BE
:1013B000FFE7FFE7FFE7FFE704980599C96DC8401D
:1013C0008006002840F18D80FFE7059800680068DE
:1013D000C006002840F18480FFE70598C16D2020F9
:1013E000884001998860059890F83500052834D127
:1013F000FFE705980168086820F016000860059866
:101400000168486920F0800048610598006C20B9A7
:10141000FFE70598806C38B1FFE705980168086818
:1014200020F008000860FFE70598C16D3F20884064
:10143000019988600599012081F83500FFE7059939
:10144000002081F83400FFE70598006D20B1FFE728
:101450000598016D8847FFE77BE005980068006804
:10146000400300281AD5FFE70598006800680003CC
:10147000002809D4FFE70598406C20B1FFE70598E4
:10148000416C8847FFE708E00598C06B20B1FFE793
:101490000598C16B8847FFE7FFE720E005980068E3
:1014A0000068C005002811D4FFE7059801680868A6
:1014B00020F0100008600599012081F83500FFE751
:1014C0000599002081F83400FFE7FFE70598C06B1D
:1014D00020B1FFE70598C16B8847FFE7FFE7FFE70B
:1014E000FFE70598406DA0B3FFE70598406DC00782
:1014F00030B3FFE70599052081F8350005980168AC
:10150000086820F001000860FFE7039801300390AD
:101510000299884201D9FFE707E0FFE705980068D4
:101520000068C0070028F0D1FFE70599012081F885
:101530003500FFE70599002081F83400FFE7FFE759
:101540000598C06C20B1FFE70598C16C8847FFE79C
:10155000FFE706B080BD000080B586B00490002093
:10156000039000F015FB0290049820B9FFE70120DA
:101570008DF81700A3E00498406A08B1FFE7FFE781
:101580000499022081F83500FFE70499002081F8D2
:101590003400FFE704980168086820F00100086043
:1015A000FFE7049800680068C00790B1FFE700F00B
:1015B000EFFA0299401A06280AD3FFE7049920207F
:1015C00048650499032081F835008DF8170076E00E
:1015D000E7E70498006800680390039848F23F0129
:1015E000CFF2100108400390049900914868D1F8A7
:1015F00008C0CB680A6940EA0C00184310434A69E6
:1016000010438A691043CA691043096A0143039869
:10161000084303900498406A042808D1FFE704991E
:10162000C86A096B0143039808430390FFE70398D6
:101630000499096808600498006840690390039859
:1016400020F0070003900498416A03980843039030
:101650000498406A04281AD1FFE70498816A039825
:10166000084303900498C06A80B1FFE70498FEF72E
:1016700033FF50B1FFE704994020486504990120E9
:1016800081F835008DF8170019E0FFE7FFE70398B0
:101690000499096848610498FEF7F2FE01900498E5
:1016A000C16D3F20884001998860049900204865F9
:1016B000049A012182F835108DF81700FFE79DF894
:1016C000170006B080BD000080B584B0039000F024
:1016D0005FFA0290039801900198013048B1FFE74A
:1016E00040F25400C2F200000178019808440190D1
:1016F000FFE7FFE700F04CFA0299401A019988428F
:1017000001D2FFE7F6E704B080BD000081B0ADF87C
:10171000020001B07047000080B582B0ADF806004D
:1017200043F61440C4F201000068BDF806100842F8
:101730000CD0FFE7BDF8060043F61441C4F20101E6
:101740000860BDF80600FFF7E1FFFFE702B080BDCB
:101750008EB00D900C9100200A90099008900B908B
:10176000FFE70B980F2800F2CC81FFE70B990120CF
:1017700088400A900C9800680A99084009900998D6
:101780000A99884240F0B881FFE70C98406800F061
:101790000300012807D0FFE70C98406800F0030021
:1017A00002282FD1FFE70D98806808900B98410020
:1017B000032000FA01F10898884308900C98C0684B
:1017C0000B99490000FA01F108980843089008981D
:1017D0000D9988600D98406808900B99012000FAD7
:1017E00001F10898884308900C984068C0F30010F5
:1017F0000B9900FA01F108980843089008980D9990
:101800004860FFE70C98406800F00300032818D0F8
:10181000FFE70D98C06808900B984100032000FA7C
:1018200001F10898884308900C9880680B9949004A
:1018300000FA01F108980843089008980D99C860CB
:10184000FFE70C98406800F00300022826D1FFE76C
:101850000D980B996FF0030202EA51010844006AE7
:1018600008900B9800F0070081000F2000FA01F1AA
:101870000898884308900C9800690B9901F00701BB
:10188000890000FA01F108980843089008980D991A
:101890000B9B02EA530211440862FFE70D980068AF
:1018A00008900B984100032000FA01F10898884342
:1018B00008900C98406800F003000B99490000FA6A
:1018C00001F108980843089008980D9908600C9851
:1018D00080798007002800F00E81FFE7FFE70020F5
:1018E000079043F64400C4F20200016841F48041CD
:1018F0000160006800F4804007900798FFE70B98AC
:1019000020F0030043F60801C4F20101405808909A
:101910000B9800F0030081000F2000FA01F10898F5
:10192000884308900D980021C4F20201884203D137
:10193000FFE7002006905EE00D9840F20041C4F2FF
:101940000201884203D1FFE70120059050E00D9885
:1019500040F60001C4F20201884203D1FFE70220F1
:10196000049042E00D9840F60041C4F20201884222
:1019700003D1FFE70320039034E00D9841F200010A
:10198000C4F20201884203D1FFE70420029026E05E
:101990000D9841F20041C4F20201884203D1FFE7F1
:1019A0000520019018E00D9841F60001C4F20201F3
:1019B000884203D1FFE7062000900AE00D9941F626
:1019C0000042C4F202020820914208BF07200090A2
:1019D000FFE700980190FFE701980290FFE7029867
:1019E0000390FFE703980490FFE704980590FFE752
:1019F00005980690FFE70698C0B20B9901F0030125
:101A0000890000FA01F108980843089008980B999A
:101A100021F0030143F60802C4F20102885043F6A4
:101A20000840C4F2010000680890099908988843AA
:101A300008900C988079C006002805D5FFE7099921
:101A4000089808430890FFE7089843F60841C4F255
:101A50000101086043F60C40C4F2010000680890E0
:101A600009990898884308900C9880798006002886
:101A700005D5FFE70999089808430890FFE70898FB
:101A800043F60C41C4F20101086043F60440C4F27D
:101A900001000068089009990898884308900C98FC
:101AA00080798007002805D5FFE709990898084341
:101AB0000890FFE7089843F60441C4F2010108606A
:101AC00043F60040C4F201000068089009990898A4
:101AD000884308900C988079C00728B1FFE70999DE
:101AE000089808430890FFE7089843F60041C4F2BD
:101AF00001010860FFE7FFE7FFE70B9801300B905B
:101B00002FE60EB07047000082B00190ADF80210D1
:101B100001980069BDF80210084204D0FFE70120D7
:101B20008DF8010003E000208DF80100FFE79DF82B
:101B3000010002B07047000083B00290ADF80610BB
:101B4000029840690090009ABDF8060002EA000180
:101B5000904340EA01400299886103B07047000059
:101B600082B00190ADF802108DF801209DF80100BF
:101B700028B1FFE7BDF802000199886105E0BDF8D2
:101B80000200000401998861FFE702B0704700007D
:101B900040F29040C2F200000068704740F25400EA
:101BA000C2F20000027840F29041C2F200010868DF
:101BB000104408607047000080B543F60041C4F24D
:101BC0000201086840F400700860086840F4806012
:101BD0000860086840F480700860032000F08AF80C
:101BE0000F2000F005F800F03BF8002080BD000059
:101BF00080B582B0009040F25000C2F20000006850
:101C000040F25401C2F200010A784FF47A71B1FB3C
:101C1000F2F1B0FBF1F000F0C5FE20B1FFE70120CA
:101C20008DF8070018E000980F280DD8FFE70099FD
:101C30004FF0FF30002200F043F8009840F25801C6
:101C4000C2F20001086003E001208DF8070003E004
:101C500000208DF80700FFE79DF8070002B080BD67
:101C600082B0FFE70020019043F64400C4F2020076
:101C7000016841F480410160006800F480400190F7
:101C80000198FFE7FFE70020009043F64000C4F210
:101C90000200016841F080510160006800F080504E
:101CA00000900098FFE702B07047000080B582B056
:101CB0008DF807009DF9070002F076FC02B080BDA8
:101CC00080B586B08DF81700049103920020029031
:101CD00002F082FC02909DF917000190029804998D
:101CE000039A01F02BFF0146019802F07DFC06B03B
:101CF00080BD000080B582B00190019802F096FC92
:101D000002B080BD80B584B002900191029820B9E4
:101D1000FFE701208DF80F0021E1019843F6004113
:101D2000C4F20201096801F00701884212D9FFE7F5
:101D3000019943F60040C4F202000170006800F00F
:101D400007000199884204D0FFE701208DF80F00B9
:101D500005E1FFE702980078800700282AD5FFE711
:101D6000029800784007002809D5FFE743F60801EC
:101D7000C4F20201086840F4E0500860FFE70298EE
:101D800000780007002809D5FFE743F60801C4F2F0
:101D90000201086840F460400860FFE743F608016C
:101DA000C4F20201086820F0F000029A9268104321
:101DB0000860FFE702980078C00700286ED0FFE7B0
:101DC00002984068012811D1FFE743F60000C4F2F1
:101DD0000200006800F400310020B0EB514F04D144
:101DE000FFE701208DF80F00B9E02CE00298406871
:101DF000022805D0FFE702984068032811D1FFE7C9
:101E000043F60000C4F20200006800F000710020F8
:101E1000B0EB516F04D1FFE701208DF80F009EE079
:101E200010E043F60000C4F20200006800F0020176
:101E30000020B0EB510F04D1FFE701208DF80F0017
:101E40008DE0FFE7FFE743F60801C4F202010868EE
:101E500020F00300029A526810430860FFF798FED2
:101E60000090FFE743F60800C4F20200006800F0AB
:101E70000C0002994968B0EB810F0ED0FFE7FFF725
:101E800087FE0099401A41F28931884204D3FFE766
:101E900003208DF80F0062E0E4E7FFE7019843F6C6
:101EA0000041C4F20201096801F00701884212D220
:101EB000FFE7019943F60040C4F202000170006898
:101EC00000F007000199884204D0FFE701208DF857
:101ED0000F0044E0FFE702980078400700280CD587
:101EE000FFE743F60801C4F20201086820F4E0505D
:101EF000029AD26810430860FFE702980078000752
:101F000000280DD5FFE743F60801C4F20201086876
:101F100020F46040029A126940EAC2000860FFE7BC
:101F200000F022F843F60801C4F202010968C9B2C0
:101F30000A0944F65201C0F60001895CC84040F22B
:101F40005001C2F20001086040F25800C2F20000E5
:101F50000068FFF74DFE00208DF80F00FFE79DF8A9
:101F60000F0004B080BD000080B586B00020059051
:101F700004900390029043F60800C4F20200006847
:101F800000F00C000146019140B1FFE701980428E0
:101F90000AD0FFE7019808280CD04FE042F2004039
:101FA000C0F2F40002904FE041F60030C0F2B700FA
:101FB000029049E043F60400C4F20200016801F017
:101FC0003F01059100684002002813D5FFE743F662
:101FD0000400C4F202000068C0F3881041F600312A
:101FE000C0F2B701A0FB0101059A0023FEF7E8F853
:101FF000049012E043F60400C4F202000068C0F34B
:10200000881042F20041C0F2F401A0FB0101059AE0
:102010000023FEF7D5F80490FFE743F60400C4F26E
:102020000200006800F44031022000EBD130039040
:1020300004980399B0FBF1F0029005E042F20040F1
:10204000C0F2F4000290FFE7029806B080BD0000E5
:1020500080B586B00490049820B9FFE701208DF880
:10206000170050E304980078C007002800F0A5800E
:10207000FFE743F60800C4F20200006800F00C001D
:10208000042813D0FFE743F60800C4F202000068FA
:1020900000F00C0008281ED1FFE743F60400C4F24C
:1020A000020000684002002815D5FFE743F6000053
:1020B000C4F20200006800F400310020B0EB514F80
:1020C00008D0FFE70498406820B9FFE701208DF8A9
:1020D000170018E370E0FFE704984068B0F5803F10
:1020E00009D1FFE743F60001C4F20201086840F499
:1020F0008030086020E004984068B0F5A02F0DD132
:10210000FFE743F60001C4F20201086840F48020B2
:102110000860086840F4803008600CE043F6000175
:10212000C4F20201086820F480300860086820F4D6
:1021300080200860FFE7FFE7FFE704984068E8B108
:10214000FFE7FFF725FD0390FFE743F60000C4F229
:102150000200006800F400310020B0EB514F0CD1B8
:10216000FFE7FFF715FD0399401A652804D3FFE741
:1021700003208DF81700C6E2E7E71CE0FFF708FD33
:102180000390FFE743F60000C4F20200006800F489
:1021900000310020B0EB514F0CD0FFE7FFF7F8FC07
:1021A0000399401A652804D3FFE703208DF8170030
:1021B000A9E2E7E7FFE7FFE7FFE704980078800779
:1021C000002840F19680FFE743F60800C4F20200C1
:1021D000006810F00C0F13D0FFE743F60800C4F2BC
:1021E0000200006800F00C0008282CD1FFE743F63D
:1021F0000400C4F2020000684002002823D4FFE774
:1022000043F60000C4F20200006800F00201002062
:10221000B0EB510F09D0FFE70498C068012804D043
:10222000FFE701208DF817006DE243F60001C4F2CC
:102230000201086820F0F800049A126940EAC2001E
:102240000860FFE754E00498C06870B3FFE700211E
:10225000C4F2472101200860FFF79AFC0390FFE7D2
:1022600043F60000C4F20200006800F00201002002
:10227000B0EB510F0CD1FFE7FFF78AFC0399401A2E
:10228000032804D3FFE703208DF817003BE2E7E7BC
:1022900043F60001C4F20201086820F0F800049A35
:1022A000126940EAC200086021E00021C4F247211F
:1022B00000200860FFF76CFC0390FFE743F6000086
:1022C000C4F20200006800F002010020B0EB510FE0
:1022D0000CD0FFE7FFF75CFC0399401A032804D3F6
:1022E000FFE703208DF817000DE2E7E7FFE7FFE7C0
:1022F000FFE704980078000700284BD5FFE7049813
:10230000406918B3FFE740F68061C4F2472101201D
:102310000860FFF73DFC0390FFE743F67400C4F24A
:102320000200006800F002010020B0EB510F0CD158
:10233000FFE7FFF72DFC0399401A032804D3FFE7BA
:1023400003208DF81700DEE1E7E722E040F6806128
:10235000C4F2472100200860FFF71AFC0390FFE752
:1023600043F67400C4F20200006800F0020100208D
:10237000B0EB510F0CD0FFE7FFF70AFC0399401AAE
:10238000032804D3FFE703208DF81700BBE1E7E73C
:10239000FFE7FFE7049800784007002840F1CE806F
:1023A000FFE700208DF8070043F64000C4F202006A
:1023B0000068C000002815D4FFE7FFE70020009068
:1023C00043F64000C4F20200016841F08051016010
:1023D000006800F0805000900098FFE701208DF821
:1023E0000700FFE747F20000C4F200000068C005E4
:1023F000002822D4FFE747F20001C4F20001086878
:1024000040F480700860FFF7C3FB0390FFE747F2DA
:102410000000C4F200000068C00500280CD4FFE7EB
:10242000FFF7B6FB0399401A032804D3FFE7032004
:102430008DF8170067E1EAE7FFE7FFE70498806897
:10244000012809D1FFE743F67001C4F202010868D0
:1024500040F0010008601FE00498806805280DD155
:10246000FFE743F67001C4F20201086840F004007F
:102470000860086840F0010008600CE043F6700155
:10248000C4F20201086820F001000860086820F02A
:1024900004000860FFE7FFE7FFE704988068F8B1F1
:1024A000FFE7FFF775FB0390FFE743F67000C4F208
:1024B0000200006800F002010020B0EB510F0ED1C5
:1024C000FFE7FFF765FB0399401A41F28931884223
:1024D00004D3FFE703208DF8170014E1E5E71EE0C1
:1024E000FFF756FB0390FFE743F67000C4F20200CB
:1024F000006800F002010020B0EB510F0ED0FFE7A2
:10250000FFF746FB0399401A41F28931884204D310
:10251000FFE703208DF81700F5E0E5E7FFE79DF8FA
:102520000700012809D1FFE743F64001C4F2020188
:10253000086820F080500860FFE7FFE70498806992
:10254000002800F0DC80FFE743F60800C4F2020038
:10255000006800F00C00082800F08580FFE7049870
:10256000806902285CD1FFE76021C4F24721002086
:102570000860FFF70DFB0390FFE743F60000C4F28D
:102580000200006800F000710020B0EB516F0CD029
:10259000FFE7FFF7FDFA0399401A032804D3FFE78A
:1025A00003208DF81700AEE0E7E70499C869D1F879
:1025B00020C04B6A8A6A40EA0C0040EA8310D203CA
:1025C0004FF6FF739A43A2F580321043C96A40EA7E
:1025D000016043F60401C4F2020108606021C4F204
:1025E000472101200860FFF7D3FA0390FFE743F685
:1025F0000000C4F20200006800F000710020B0EB9F
:10260000516F0CD1FFE7FFF7C3FA0399401A032873
:1026100004D3FFE703208DF8170074E0E7E721E01B
:102620006021C4F2472100200860FFF7B1FA03904F
:10263000FFE743F60000C4F20200006800F00071FA
:102640000020B0EB516F0CD0FFE7FFF7A1FA039920
:10265000401A032804D3FFE703208DF8170052E047
:10266000E7E7FFE74AE004988069012804D1FFE723
:1026700001208DF8170046E043F60400C4F2020082
:102680000068029004988069012831D0FFE7029821
:1026900000F480000499C969884229D1FFE70298B3
:1026A00000F03F000499096A884221D1FFE70298AF
:1026B00047F6C07108400499496AB0EB811F17D1F1
:1026C000FFE7029800F440300499896AC9034FF685
:1026D000FF729143A1F58031884209D1FFE702984A
:1026E00000F070600499C96AB0EB016F04D0FFE795
:1026F00001208DF8170006E0FFE7FFE7FFE7002065
:102700008DF81700FFE79DF8170006B080BD0000A8
:1027100080B584B00290029820B9FFE701208DF8BF
:102720000F0071E00298406A60B9FFE702984068C4
:10273000B0F5827F01D1FFE703E002990020C86174
:10274000FFE705E002990020086102994861FFE770
:10275000029900208862029890F8510040B9FFE782
:102760000299002081F85000029800F051F8FFE72C
:102770000299022081F8510002980168086820F04F
:1027800040000860029A019211685068D2F808C0AF
:10279000D36800F482700CF4044C604403F40063CA
:1027A0001844136903F002031844536903F001034A
:1027B0001844936903F400731844D36903F0380391
:1027C0001844136A03F080031843926A02F400521B
:1027D00010430860029A508B00F004001168526A9E
:1027E00002F010021044486002980168C86920F4A1
:1027F0000060C861029900204865029A012182F8B0
:1028000051108DF80F00FFE79DF80F0004B080BD58
:1028100080B590B00F9000200E900D900C900B9012
:102820000A900F98006843F20001C4F20101884247
:1028300040F0B680FFE7FFE70020099043F6440030
:10284000C4F20200016841F480510160006800F4A4
:10285000805009900998FFE7FFE70020089043F6B1
:102860003000C4F20200016841F00201016000681A
:1028700000F0020008900898FFE7FFE700200790AB
:1028800043F63000C4F20200016841F0010101602A
:10289000006800F0010007900798FFE718200A90F1
:1028A000022001900B90002005900C9003200290D4
:1028B0000D90052003900E9040F20040C4F20200FB
:1028C0000AA90491FEF744FFDDF804C0029A0398B8
:1028D0000499059B4FF0800ECDF828E0CDF82CC070
:1028E0000C930D920E900020C4F20200FEF730FF10
:1028F000059940F2E420C2F20000069046F2104230
:10290000C4F2020202604FF0C06242608160C160A6
:102910004FF48062026141618161C1614FF44032D4
:1029200002624162FEF718FE18B1FFE7FDF75AFE9A
:10293000FFE7FFE70F9840F2E421C2F20001C16413
:102940000F988863FFE740F24430C2F20000009025
:1029500046F25841C4F2020101604FF0C06141608B
:10296000402181600021C1604FF4806202614161B9
:102970008161C1614FF4003202624162FEF7ECFDF9
:1029800018B1FFE7FDF72EFEFFE7FFE70F9840F2D3
:102990004431C2F2000181640F988863FFE7FFE7CA
:1029A00010B080BD80B582B00190019801F03CFA72
:1029B00002B080BD84B00290019100200090FFE73A
:1029C000029890F83C00012804D1FFE702208DF81E
:1029D0000F0044E00299012081F83C00FFE7FFE787
:1029E000009820F0FF000199C96808430090009802
:1029F00020F440700199896808430090009820F401
:102A000080600199496808430090009820F40060B4
:102A10000199096808430090009820F480500199BA
:102A2000096908430090009820F400500199496911
:102A300008430090009820F480400199C969084338
:102A400000900098029909684864FFE70299002005
:102A500081F83C00FFE700208DF80F00FFE79DF8AC
:102A60000F0004B07047000085B003900291FFE7AB
:102A7000039890F83C00012804D1FFE702208DF86C
:102A800013007EE00399012081F83C00FFE7FFE797
:102A90000399022081F83D00039800684068019086
:102AA0000398006880680090019820F07000019001
:102AB00002980168019808430190019803990968F8
:102AC0004860039800680021C4F2010188423CD0AC
:102AD000FFE703980068B0F1804F36D0FFE7039816
:102AE000006840F20041C4F2000188422DD0FFE7A7
:102AF0000398006840F60001C4F20001884224D027
:102B0000FFE70398006840F60041C4F200018842E4
:102B10001BD0FFE70398006840F20041C4F20101B6
:102B2000884212D0FFE70398006844F20001C4F223
:102B30000101884209D0FFE70398006841F60001CF
:102B4000C4F2000188420ED1FFE7009820F0800017
:102B500000900298416800980843009000980399FB
:102B600009688860FFE70399012081F83D00FFE7CD
:102B70000399002081F83C00FFE700208DF8130046
:102B8000FFE79DF8130005B07047000080B582B0E4
:102B90000090009820B9FFE701208DF807003FE082
:102BA000009890F83D0040B9FFE70099002081F8B7
:102BB0003C00009800F038F8FFE70099022081F807
:102BC0003D00009951F8040B01F0C4F9009901206F
:102BD00081F84600FFE70099012081F83E00009946
:102BE00081F83F00009981F84000009981F8410088
:102BF000FFE7FFE70099012081F84200009981F882
:102C00004300009981F84400009981F84500FFE7EE
:102C10000099012081F83D0000208DF80700FFE7B2
:102C20009DF8070002B080BD83B002900298006852
:102C30000021C4F20101884212D1FFE7FFE7002022
:102C4000019043F64400C4F20200016841F0010122
:102C50000160006800F0010001900198FFE71BE0AF
:102C60000298006840F60001C4F20001884212D1C7
:102C7000FFE7FFE70020009043F64000C4F20200A7
:102C8000016841F004010160006800F00400009058
:102C90000098FFE7FFE7FFE703B0704780B586B015
:102CA0000490039100208DF80B00FFE7049890F842
:102CB0003C00012804D1FFE702208DF81700ABE0AB
:102CC0000499012081F83C00FFE7FFE70499022006
:102CD00081F83D000498006880680190019820F018
:102CE00077000190019820F47F40019001980499A9
:102CF00009688860039800680090002872D0FFE798
:102D0000009810286ED0FFE7009820286AD0FFE7CF
:102D10000098302866D0FFE70098402855D0FFE79C
:102D20000098502837D0FFE70098602840D0FFE790
:102D3000009870280BD0FFE70098B0F5805F05D0B1
:102D4000FFE70098B0F5005F16D052E055E0049818
:102D50000068039B5A689968DB6801F0E5F90498FC
:102D6000006880680190019840F077000190019818
:102D700004990968886040E004980068039B5A68D9
:102D80009968DB6801F0D0F904980168886840F41C
:102D90008040886031E004980068039A5168D268E6
:102DA00001F0AEFB04980068502101F0D7F924E04F
:102DB00004980068039A5168D26801F0C9FB04982E
:102DC0000068602101F0CAF917E004980068039ACE
:102DD0005168D26801F094FB04980068402101F02A
:102DE000BDF90AE0049800680399096801F0B6F992
:102DF00003E001208DF80B00FFE70499012081F822
:102E00003D00FFE70499002081F83C00FFE79DF8B2
:102E10000B008DF81700FFE79DF8170006B080BD86
:102E200080B588B00790002006900590049003902C
:102E30000290079800680021C4F20101884223D162
:102E4000FFE7FFE70020019043F63000C4F20200E4
:102E5000016841F010010160006800F0100001906D
:102E60000198FFE74FF400700290022003900020C9
:102E7000049005900120069041F20000C4F2020087
:102E800002A9FEF765FC2BE00798006840F60001F8
:102E9000C4F20001884222D1FFE7FFE70020009042
:102EA00043F63000C4F20200016841F008010160FD
:102EB000006800F0080000900098FFE74FF48040A1
:102EC000029002200390002104910591069040F6A3
:102ED0000040C4F2020002A9FEF73AFCFFE7FFE758
:102EE00008B080BD80B586B00490039102920020A6
:102EF0008DF80700FFE7049890F83C00012804D102
:102F0000FFE702208DF8170089E00499012081F87D
:102F10003C00FFE7FFE7029800900C2800F2708069
:102F20000099DFE801F0076D6D6D206D6D6D3A6DF4
:102F30006D6D530004980068039901F025F9049819
:102F40000168886940F00800886104980168886910
:102F500020F0040088610398026904980168886978
:102F60001043886150E004980068039901F082F9E9
:102F700004980168886940F40060886104980168D9
:102F8000886920F480608861039802690498016868
:102F9000886940EA0220886136E004980068039955
:102FA00001F0E2F904980168C86940F00800C861BE
:102FB00004980168C86920F00400C8610398026998
:102FC00004980168C8691043C8611DE0049800684E
:102FD000039901F043FA04980168C86940F400605D
:102FE000C86104980168C86920F48060C8610398CA
:102FF000026904980168C86940EA0220C86103E0D8
:1030000001208DF80700FFE7FFE70499002081F811
:103010003C00FFE79DF807008DF81700FFE79DF8DB
:10302000170006B080BD000080B582B00090009807
:1030300020B9FFE701208DF807003FE0009890F8E5
:103040003D0040B9FFE70099002081F83C0000985E
:1030500000F038F8FFE70099022081F83D00009960
:1030600051F8040B00F076FF0099012081F846002A
:10307000FFE70099012081F83E00009981F83F00A8
:10308000009981F84000009981F84100FFE7FFE7CF
:103090000099012081F84200009981F843000099CD
:1030A00081F84400009981F84500FFE7009901206C
:1030B00081F83D0000208DF80700FFE79DF807002C
:1030C00002B080BD81B0009001B0704780B58CB077
:1030D0000A900991099828B9FFE70A9890F83E00EC
:1030E00007901CE00998042805D1FFE70A9890F89A
:1030F0003F00069010E00998082805D1FFE70A98DC
:1031000090F84000059004E00A9890F8410005907E
:10311000FFE705980690FFE706980790FFE70798F6
:10312000012804D0FFE701208DF82F00AFE00998B7
:1031300028B9FFE70A99022081F83E001EE00998AD
:10314000042806D1FFE70A99022081F83F00049085
:1031500012E00998082806D1FFE70A99022081F8B1
:103160004000039005E00A99022081F84100039095
:10317000FFE703980490FFE70498FFE70A980068C8
:1031800009990122019200F0B3FF01980A99096898
:103190000022C4F20102914202900CD0FFE70A988B
:1031A00000684FF60041CBF6FE710844B0FA80F09B
:1031B00040090290FFE70298C00738B1FFE70A987C
:1031C0000168486C40F400404864FFE70A980068D2
:1031D0000021C4F2010188423CD0FFE70A98006850
:1031E000B0F1804F36D0FFE70A98006840F2004106
:1031F000C4F2000188422DD0FFE70A98006840F62B
:103200000001C4F20001884224D0FFE70A98006858
:1032100040F60041C4F2000188421BD0FFE70A9843
:10322000006840F20041C4F20101884212D0FFE779
:103230000A98006844F20001C4F20101884209D0F2
:10324000FFE70A98006841F60001C4F200018842D5
:1032500012D1FFE70A980068806800F00700089024
:103260000898062807D0FFE70A980168086840F028
:1032700001000860FFE706E00A980168086840F06E
:1032800001000860FFE700208DF82F00FFE79DF8A0
:103290002F000CB080BD000080B586B00590049171
:1032A000059800680499002200F022FF0598016843
:1032B00001200022C4F20102914203900CD0FFE7EA
:1032C000059800684FF60041CBF6FE710844B0FA4D
:1032D00080F040090390FFE70398C007D8B1FFE7EB
:1032E000FFE705980068006A41F21111084210D109
:1032F000FFE705980068006A40F24441084207D1A0
:10330000FFE705980168486C20F400404864FFE737
:10331000FFE7FFE7FFE7FFE705980068006A41F273
:103320001111084210D1FFE705980068006A40F2C9
:103330004441084207D1FFE705980168086820F07A
:1033400001000860FFE7FFE7FFE7049828B9FFE7FF
:103350000599012081F83E001EE00498042806D15A
:10336000FFE70599012081F83F00029012E00498E0
:10337000082806D1FFE70599012081F84000019057
:1033800005E00599012081F841000190FFE70198CF
:103390000290FFE70298FFE7002006B080BD000022
:1033A000FFE7FEE780B582B001F05EF940F2600011
:1033B000C2F2000040F24441C2F20001082247F686
:1033C0000023C0F603230193FCF770FF019B40F23A
:1033D0008020C2F2000040F2FC31C2F20001002263
:1033E0009FED0D0A00F0DEFC01F05EF940F2BC201A
:1033F000C2F20000FCF7CAFF40F2E000C2F2000097
:1034000040F24C21C2F2000140F22022C2F200023E
:1034100000F0D2FA02B080BD0000000080B582B09A
:1034200001900198FDF704F920B9FFE70199C868F8
:103430000861FFE70198FDF7FBF801280AD1FFE7D3
:103440000199C8680969401A40F28C41C2F2000132
:103450000860FFE740F28C40C2F20000006850288C
:1034600007D8FFE740F29801C2F200010220087578
:1034700027E040F28C40C2F20000006850280FD3D1
:10348000FFE740F28C40C2F200000068C82807D86D
:10349000FFE740F29801C2F20001012008750FE039
:1034A00040F28C40C2F200000068C82807D3FFE752
:1034B00040F29801C2F2000100200875FFE7FFE723
:1034C000FFE702B080BD000080B582B0019000919E
:1034D0000199DDF800E0DEF80000DEF80420DEF8F7
:1034E0000830DEF80CC0DEF810E0C1F810E0C1F8DA
:1034F0000CC08B604A60086001990020087502B01A
:1035000080BD000080B582B001900198007D012847
:1035100004D1FFE70198FDF7ADF821E00198007DA7
:1035200020B9FFE70198FDF795F818E00198007DB4
:10353000022813D1FFE70199487D013048750198B1
:10354000407DC82809DBFFE70199002048750199F3
:1035500048680989FEF7F0FAFFE7FFE7FFE7FFE7B2
:1035600002B080BD80B582B040F2BC20C2F2000043
:10357000009046F20041C4F2000101600321416065
:10358000002101918160C1604FF4102202614FF46B
:1035900000124261017641768176C17601774177EA
:1035A000FDF76AFC18B1FFE7FDF71CF8FFE702B072
:1035B00080BD000080B584B0FFE70020039043F693
:1035C0003000C4F20200016841F48001016000682B
:1035D00000F4800003900398FFE738200090002259
:1035E00001921146FEF76CFB0098FEF75FFB019A13
:1035F0003B2002901146FEF763FB0298FEF756FB54
:1036000004B080BD80B594B000201390129011904A
:1036100010900F90FFE700200E9043F63000C4F2A8
:103620000200016841F002010160006800F0020040
:103630000E900E98FFE7FFE700200D9043F6300054
:10364000C4F20200016841F001010160006800F06D
:1036500001000D900D98FFE7FFE700200C9043F666
:103660003000C4F20200016841F008010160006806
:1036700000F008000C900C98FFE7FFE700200B908B
:1036800043F63000C4F20200016841F0800101609D
:10369000006800F080000B900B98FFE7FFE7002028
:1036A0000A9043F63000C4F20200016841F01001B4
:1036B0000160006800F010000A900A98FFE741F6E8
:1036C0000040C4F2020001904FF4E051009100224A
:1036D0000892FEF745FA0020C4F202000390102180
:1036E000029101220492FEF73BFA049A40F2004054
:1036F000C4F2020006901146FEF732FA009B0198D0
:10370000049A08990F931092119112910FA90791A1
:10371000FEF71EF80398049A07990F924FF444138A
:1037200010931192FEF714F8029B0398049A0799DC
:103730000F9310921192022205921292FEF708F84E
:10374000049B059A069807990F9310931193129270
:10375000FDF7FEFF089A062009901146FEF7B0FA21
:103760000998FEF7A3FA14B080BD000080B582B0BE
:1037700040F2A430C2F20000019043F20001C4F212
:10378000010101604FF48271416000218160C160DC
:1037900002220261012242614FF40072826118220A
:1037A000C2610162416281620A21C162FEF7B0FF1B
:1037B00018B1FFE7FCF716FFFFE702B080BD00007D
:1037C00080B598B00021019117911691159114912F
:1037D00013911291119110910F910E910D910C91E5
:1037E0000B910A9109910891079106910591049115
:1037F000039140F2FC30C2F2000002900022C4F2B9
:1038000001020260A7224260816044F61F62C2602A
:10381000016141618161FFF7B9F918B1FFE7FCF778
:10382000E1FEFFE74FF48050149040F2FC30C2F20A
:10383000000014A9FFF732FA18B1FFE7FCF7D2FE37
:10384000FFE740F2FC30C2F20000FFF7EDFB18B1D9
:10385000FFE7FCF7C7FEFFE700201290139040F24D
:10386000FC30C2F2000012A9FFF7FEF818B1FFE722
:10387000FCF7B8FEFFE760200B9000220C920D923F
:103880000E920F921092119240F2FC30C2F20000A0
:103890000BA9FFF727FB18B1FFE7FCF7A3FEFFE733
:1038A0000020039004900590069007904FF400517B
:1038B00008910A9040F2FC30C2F2000003A9FFF721
:1038C00079F818B1FFE7FCF78DFEFFE740F2FC3016
:1038D000C2F20000FFF7A4FA18B080BD80B58EB028
:1038E000002100910D910C910B910A910991089181
:1038F000079106910591049103910291019140F283
:103900004440C2F2000040F60002C4F2000202602D
:103910004160816042F20F72C26001618161FFF714
:1039200035F918B1FFE7FCF75DFEFFE74FF4805073
:103930000A9040F24440C2F200000AA9FFF7AEF933
:1039400018B1FFE7FCF74EFEFFE740F24440C2F239
:103950000000FFF769FB18B1FFE7FCF743FEFFE744
:1039600000200890099040F24440C2F2000008A9EB
:10397000FFF77AF818B1FFE7FCF734FEFFE76020A5
:103980000190002002900390059040F24440C2F262
:10399000000001A90822FFF7A5FA18B1FFE7FCF71C
:1039A00021FEFFE740F24440C2F20000FFF738FA80
:1039B0000EB080BDFFE7FEE780B588B007900691A6
:1039C0000592069807990860059807994860079836
:1039D0000830002100919FED1C0ADFED1C0A9FEDCD
:1039E0001C2A8DED012ADFED1B2ACDED022A9FED69
:1039F0001A3A8DED033AF7EE004ACDED044AB0EEE7
:103A0000421AF0EE421AF0EE643AB0EE644A00F068
:103A1000CBF800999DED012ADDED022A9DED033AD8
:103A2000DDED044A079858309FED0C0A9FED0C1A03
:103A3000F0EE420AF0EE421AF0EE643AB0EE644A5A
:103A400000F0B2F808B080BD0000FA430AD7233C6A
:103A50000000000000401C4600409C469A99054129
:103A6000AE47E13D80B584B003900291019200938E
:103A7000039840F2BC21C2F2000188420FD1FFE757
:103A80000298B0F5017F08D1FFE7019940F22020AC
:103A9000C2F2000000F02CFE00E0FFE7FFE704B0F8
:103AA00080BD000080B582B001900091019808B9F6
:103AB000FFE70CE00199002008700099019A51621B
:103AC00001998862FEF764F801990862FFE702B085
:103AD00080BD000080B586B005908DF8131003926C
:103AE000ADF80A30059818B1FFE7039808B9FFE769
:103AF00020E09DF813000599087003980599486126
:103B000005981830BDF80A10FCF798FC00200190C9
:103B1000FFE701989DF8131088420BDAFFE705983C
:103B2000019900EB810100204860FFE70198013016
:103B30000190EEE706B080BDFFE7FEE788B0079092
:103B400006910592079800F0070004900498C0F1D0
:103B50000700052803D3FFE70420019004E0049840
:103B6000C0F107000190FFE701980390049804302A
:103B7000062803D8FFE70020009003E004980338EC
:103B80000090FFE70098029006980399012202FA3C
:103B900001F101390840029B984005999A40013A89
:103BA0001140084308B0704780B58CB00B908DF879
:103BB0002B108DED090ACDED080A8DED071ACDED1C
:103BC000061A8DED052ACDED042A8DED033ACDEDD3
:103BD000023A8DED014ACDED004A9DF82B000B997C
:103BE000087009980B99486008980B9988600798A5
:103BF0000B99C86006980B99086105980B99486164
:103C000004980B99886103980B99C8619DED020A8D
:103C10000B982030FCF7EEFC9DED010A0B9830303C
:103C2000FCF7E8FC9DED000A0B984030FCF7E2FC45
:103C30000CB080BD84B0039002910192009303996F
:103C4000002008700299039A51600199039A516209
:103C50000099039A9162039A602191600399086127
:103C6000039988610399086304B0704780B584B0F4
:103C700003908DED020A039800788DF807000398F1
:103C800000F066F8029803990863039890ED0C0A17
:103C90004168C968013101EE101AB8EE411A20EEF0
:103CA000010ABCEEC00A80ED030A039A02F1080182
:103CB0005068526AFFF716F99DF80700012804D1F1
:103CC000FFE7039800F032F8FFE704B080BD000082
:103CD00080B584B003900291039800788DF80700B6
:103CE000039800F035F802980399C8620398416878
:103CF000806ACA680132B0FBF2F0029AB0FBF2F0BF
:103D00000138486003984068FFF78EF9039890EDFA
:103D10000C0AFFF7ABFF9DF80700012804D1FFE76D
:103D2000039800F003F8FFE704B080BD80B582B0CF
:103D300001900198007848B9FFE701994868496AFD
:103D4000FFF7C4F9019901200870FFE702B080BDB8
:103D500080B582B0019001980078012809D1FFE771
:103D600001994868496AFFF797FA0199002008709D
:103D7000FFE702B080BD00007047000080B540F250
:103D80009800C2F20000FFF7BDFB40F26000C2F2F3
:103D90000000FCF7ADFA0120FDF796FC80BD0000A5
:103DA0007047000080B586B005900491039202939D
:103DB0008DED010A059900200870059804300499DA
:103DC000039A029BFFF736FF059804303221FFF774
:103DD0007FFF05980430FFF7A9FF059901200870BF
:103DE00005989DED010A00F003F806B080BD0000C3
:103DF00080B582B001908DED000A0098019988632A
:103E0000019804309DED000A9FED051A80EE010A2D
:103E10009FED041A30EE010AFFF728FF02B080BDC3
:103E20000000E144CDCCCC3C80B582B0009000983D
:103E30000138B0F1807F03D3FFE70120019019E042
:103E4000009801384EF21401CEF2000108604FF0E4
:103E5000FF300F2100F0C8FB4EF21801CEF2000136
:103E6000002008604EF21002CEF20002072111601D
:103E70000190FFE7019802B080BD000080B5FDF71A
:103E80008DFE80BD80B594B008A83021FCF7D0F934
:103E9000002007900690059004900390FFE7002013
:103EA000029043F64000C4F20200016841F08051E4
:103EB0000160006800F0805002900298FFE7FFE781
:103EC0000020019047F20000C4F20000016841F4B4
:103ED00080410160006800F4804001900198FFE794
:103EE000012008904FF48030099002200E904FF48A
:103EF00080010F9106211091A821119112900720A5
:103F0000139008A8FEF7A4F818B1FFE7FCF76AFBC6
:103F1000FFE70F20039002200490002005904FF44B
:103F2000A05006904FF48050079003A80521FDF79C
:103F3000E9FE18B1FFE7FCF755FBFFE714B080BDC1
:103F40004EF68851CEF20001086840F47000086017
:103F50007047000083B002900191029800680090C1
:103F600002980021C4F20101884225D0FFE702989F
:103F7000B0F1804F20D0FFE7029840F20041C4F238
:103F80000001884218D0FFE7029840F60001C4F211
:103F90000001884210D0FFE7029840F60041C4F2C9
:103FA0000001884208D0FFE7029840F20041C4F2C5
:103FB000010188420AD1FFE7009820F070000090CC
:103FC00001984168009808430090FFE7029800219B
:103FD000C4F20101884255D0FFE70298B0F1804F4A
:103FE00050D0FFE7029840F20041C4F2000188423D
:103FF00048D0FFE7029840F60001C4F20001884271
:1040000040D0FFE7029840F60041C4F20001884228
:1040100038D0FFE7029840F20041C4F20101884223
:1040200030D0FFE7029844F20001C4F20101884257
:1040300028D0FFE7029844F20041C4F2010188420F
:1040400020D0FFE7029844F60001C4F20101884243
:1040500018D0FFE7029841F60001C4F2000188423F
:1040600010D0FFE7029841F60041C4F200018842F7
:1040700008D0FFE7029842F20001C4F20001884232
:104080000AD1FFE7009820F4407000900198C168C1
:10409000009808430090FFE7009820F08000019905
:1040A0004969084300900098029908600198806867
:1040B0000299C862019800680299886202980021FA
:1040C000C4F20101884208D0FFE7029840F20041A3
:1040D000C4F20101884205D1FFE701980069029905
:1040E0000863FFE702990120486103B070470000B0
:1040F00084B0039002910192029800F01F01012008
:1041000088400090009A0399086A904308620198D9
:10411000029901F01F0100FA01F20399086A1043A5
:10412000086204B07047000085B0049003910292C9
:104130000193049880680090009820F47F400090DC
:1041400003980299019A41EA022101430098084329
:10415000009000980499886005B0704783B0029081
:104160000191029880680090009820F07000009003
:1041700001980099084340F00700009000980299C8
:10418000886003B07047000085B0049003910499E3
:10419000086A20F0010008620498006A01900498FF
:1041A00040680090049880690290029820F07000A6
:1041B0000290029820F00300029003980168029890
:1041C00008430290019820F0020001900398816852
:1041D00001980843019004980021C4F2010188422B
:1041E00008D0FFE7049840F20041C4F20101884280
:1041F0000ED1FFE7019820F0080001900398C168F4
:10420000019808430190019820F004000190FFE715
:1042100004980021C4F20101884208D0FFE7049805
:1042200040F20041C4F20101884213D1FFE7009837
:1042300020F480700090009820F4007000900398A3
:1042400041690098084300900398816900980843E9
:104250000090FFE7009804994860029804998861EB
:10426000039840680499486301980499086205B06E
:104270007047000085B0049003910499086A20F00B
:10428000100008620498006A019004984068009049
:10429000049880690290029820F4E040029002980D
:1042A00020F44070029003980168029840EA0120CF
:1042B0000290019820F020000190039881680198F5
:1042C00040EA0110019004980021C4F201018842E3
:1042D00008D0FFE7049840F20041C4F2010188428F
:1042E0000FD1FFE7019820F0800001900398C1688A
:1042F000019840EA01100190019820F040000190DF
:10430000FFE704980021C4F20101884208D0FFE7CA
:10431000049840F20041C4F20101884215D1FFE740
:10432000009820F480600090009820F400600090D5
:1043300003984169009840EA8100009003988169E0
:10434000009840EA81000090FFE7009804994860D7
:1043500002980499886103984068049988630198D9
:104360000499086205B0704785B0049003910499E0
:10437000086A20F4807008620498006A019004982A
:10438000406800900498C0690290029820F0700084
:104390000290029820F003000290039801680298AE
:1043A00008430290019820F40070019003988168FE
:1043B000019840EA0120019004980021C4F2010113
:1043C000884208D0FFE7049840F20041C4F201019E
:1043D00088420FD1FFE7019820F400600190039814
:1043E000C168019840EA01200190019820F48060A2
:1043F0000190FFE704980021C4F20101884208D02F
:10440000FFE7049840F20041C4F20101884215D14F
:10441000FFE7009820F480500090009820F40050AE
:10442000009003984169009840EA011000900398B9
:104430008169009840EA01100090FFE70098049914
:10444000486002980499C861039840680499C86359
:1044500001980499086205B07047000085B0049087
:1044600003910499086A20F4805008620498006A55
:1044700001900498406800900498C06902900298E6
:1044800020F4E0400290029820F4407002900398DB
:104490000168029840EA01200290019820F400503F
:1044A000019003988168019840EA013001900498D6
:1044B0000021C4F20101884208D0FFE7049840F2CD
:1044C0000041C4F2010188420BD1FFE7009820F4BB
:1044D0008040009003984169009840EA8110009064
:1044E000FFE700980499486002980499C86103980E
:1044F00040680499086401980499086205B07047FF
:1045000085B00490039102920498006A0090049987
:10451000086A20F0010008620498806901900198FF
:1045200020F0F00001900299019840EA01100190FA
:10453000009820F00A00009003990098084300902A
:1045400001980499886100980499086205B0704741
:1045500085B00490039102920499086A20F010003B
:1045600008620498806901900498006A009001989C
:1045700020F4704001900299019840EA01300190C6
:10458000009820F0A00000900399009840EA0110E4
:10459000009001980499886100980499086205B018
:1045A00070470000FFE7FEE781B08DF803009DF93A
:1045B000030000280ED4FFE79DF9031001F01F024D
:1045C000012090404A094EF20011CEF2000141F85C
:1045D0002200FFE701B070474EF60C50CEF200000B
:1045E0000068C0F30220704782B08DF80700009188
:1045F0009DF9070000280AD4FFE7009800019DF903
:1046000007104EF20042CEF2000288540BE00098F0
:1046100000019DF8071001F00F014EF61452CEF282
:1046200000028854FFE702B07047000083B0029098
:10463000029800F0070000904EF60C51CEF20001F7
:104640000868019001984FF6FF0210400190019810
:10465000009A40EA02200022C0F2FA521043019070
:104660000198086003B0704780B540F2C800C2F2FC
:10467000000040F23C01C2F20001FEF725FF40F2CB
:10468000B000C2F2000040F22801C2F20001FEF7C1
:104690001BFF40F29800C2F2000040F21401C2F287
:1046A0000001FEF711FF80BD80B582B040F27C2191
:1046B000C2F2000140F24C20C2F2000000900860FB
:1046C00040F2BC22C2F2000201214FF40073FFF756
:1046D00001FA40F22020C2F2000001904FF4017173
:1046E000FFF7E0F900990198086102B080BD000071
:1046F00080B584B003900291039991ED010ABDEE5B
:10470000C00A10EE100A488202980178407840EA08
:10471000012000B200EE100AB8EEC00A039880ED46
:10472000010A02988178C07840EA012000B200EEC8
:10473000100AB8EEC00A039880ED020A02980179C7
:10474000407940EA012000B200EE100AB8EEC00A3B
:10475000039880ED030A02988079039908740398FE
:1047600090ED020A9FED241A80EE010A80ED020A04
:10477000039890ED010AB0F9120001EE100AB8EEAC
:10478000C11A30EE410ABDEEC00A8DED010A019852
:104790004EF68321CFF6FF71884205DCFFE70399CF
:1047A0004869013048610BE0019841F27D5188422F
:1047B00005DBFFE70399486901384861FFE7FFE738
:1047C000039890ED011A90ED050AB8EEC00A9FED2E
:1047D0000B2A81EE021AB2EE042A21EE021A20EE12
:1047E000020A30EE010A80ED070AFDF7D1F90399BC
:1047F000086204B080BD00BF000010420000004607
:1048000080B582B000200190FDF7D6F9FFF73AFBA2
:10481000FEF7F8FEFEF7CEFEFFF760F8FEF7A6FF04
:10482000FEF7CEFFFEF79EFEFEF7BCFDFFE7FFF7AB
:10483000A5FAFCE702E008C8121F08C1002AFAD155
:1048400070477047002001E001C1121F002AFBD110
:10485000704700000000000000000102030406078A
:1048600008090006101600061016000090480008FF
:10487000000000206000000034480008F0480008F4
:1048800060000020382400004448000800000000B8
:1048900001000000000002400100000000000000D4
:1048A0000000000000000000001C024000040000A6
:1048B000000000000000000000000000001C02409A
:1048C00000080000000000000000000000000000E0
:1048D000001C02400010000000000000000000006A
:1048E0000024F4000100000010000000000000009F
:040000050800018965
:00000001FF
